:102000000080002011CD0000E1D10000F9CC0000DB
:1020100000000000000000000000000000000000C0
:10202000000000000000000000000000F9CC0000EB
:102030000000000000000000F9CC000065CD0000A9
:10204000F9CC0000F9CC000009970000F9CC0000A1
:10205000A5D10000F9CC0000A1960000FDCC000045
:10206000F9CC000045CC0000F9CC0000F9CC000010
:10207000E1670000F9CC000055CC0000F9CC00006D
:10208000F9CC0000F9CC000035270000F9CC0000A5
:1020900000000000F9CC0000F9CC0000F9CC0000F1
:1020A000F9CC0000F9CC0000F9CC0000F9CC00001C
:1020B0000000000010B5064C2378002B07D1054B1B
:1020C000002B02D0044800E000BF0123237010BDA4
:1020D0000002002000000000146F010008B5084B4A
:1020E000002B03D00748084900E000BF07480368F9
:1020F000002B03D0064B002B00D0984708BDC046EC
:1021000000000000146F010004020020F401002010
:102110000000000000207047031C007C08221040D3
:1021200004D0D86A5B6AC01A00D501487047C0461F
:10213000FFFFFF7F08B5103005F02CFE08BD08B585
:10214000103005F0DBFE08BD08B5103005F0F0FCDE
:1021500008BD13B56C4607341030211C012205F070
:1021600027FC012801D1207801E00120404216BD62
:1021700038B5064B1C1C1D1CFC340C3D201C0C3CB3
:102180000CF030FAAC42F9D138BDC046000B00204B
:1021900010B5041C0C300CF025FA201C0CF022FAAF
:1021A000201C10BDB6239B0010B5041CC01802F003
:1021B0000DF8B2239B00E01802F008F8AE239B0054
:1021C000E01802F003F8AA239B00E01801F0FEFFDC
:1021D000A6239B00E01801F0F9FF8B239B00E01879
:1021E00002F036F886239B00E01802F031F88123D4
:1021F0009B00E01802F02CF8F8235B00E01802F0D6
:1022000027F8EE235B00E01802F022F8E4235B00DD
:10221000E01802F01DF8DA235B00E01802F018F86D
:10222000D0235B00E01802F013F8C6235B00E0182F
:1022300002F00EF8BC235B00E01802F009F8B223AC
:102240005B00E01802F004F8A8235B00E01801F03E
:10225000FFFF9E235B00E01801F0FAFF94235B0070
:10226000E01801F0F5FF8A235B00E01801F0F0FFB1
:10227000601CFF3001F0ECFF201CEC3001F0E8FFA7
:10228000201CD83001F0E4FF201CC43001F0E0FF36
:10229000201CB03001F0DCFF201C9C3001F0D8FF86
:1022A000201C883001F0D4FF201C10BDC36803221D
:1022B0000333934382685918C360914203D842683C
:1022C000C160D01800E00020704707B56B46D97197
:1022D00007331030191C012205F010FE0EBD37B572
:1022E0000379041C002B09D16D46EB71073500689A
:1022F000291C01220BF00FFF2B78237120793EBDA2
:10230000021C08B5081E03D00B68111C1B689847F7
:1023100008BD0000044A0121136804480B4002D1A3
:1023200003604360116070473002002024020020E7
:10233000044A0121136804480B4002D10360436042
:10234000116070472C0200201C020020002303743F
:1023500043744360FA239B008360014B0360704722
:1023600010590100F0B5284E85B00393336801275A
:10237000051C01910292254C3B4209D12449201CA5
:102380000CF077F9201C2349234A376010F0C8FB72
:10239000201C1F490CF0C8F90199201C0CF057FAB9
:1023A0001E4E201C311C0CF009FA1D4B201C1988F4
:1023B0000CF02BFA311C201C0CF000FA0399201CA5
:1023C0000CF034FA311C201C0CF0F8F90299201C96
:1023D0000CF0EDF9311C201C0CF0F0F9114B201C15
:1023E00019780CF002FA311C201C0CF0E7F90E4BA6
:1023F000201C19780CF0F9F9281C211C0CF082F92A
:10240000281C05B0F0BDC046340C0020B80C0020DC
:102410001B5A0100E5E500000000002044590100BE
:102420001C0C00200400002016000020F0B58BB02A
:102430001C1C10AB1B78002501900F1C029203930B
:10244000AC4269D0364E3749301C0CF0B7F9FBB2BC
:102450000C215943344B04A859180CF053F904AA21
:10246000231C07A80199FFF77DFF07A9301C0CF07A
:102470009EF907A80CF0B6F804A80CF0B3F8A54232
:1024800025D2301C29490CF099F93A1C143AAB00BA
:10249000012A0CD8029AD0580DF07AFD0C21C0B256
:1024A0004143214B301C59180CF081F90CE0029A81
:1024B00007A8D158039A0CF048F9301C07A90CF072
:1024C00076F907A80CF08EF80135ADB2D7E7184BB6
:1024D000184E1B78002B18D0174B1B78002B14D1EB
:1024E000164D1749281C0CF01FF93188281C0CF0D8
:1024F0008CF90E49281C0CF061F9211C281C0CF0E9
:1025000095F91048291C0BF0BBF9338800220133E0
:1025100033800D4B01251A80281C0BB0F0BDC0463E
:10252000DC0A0020416A0100000B00204459010030
:10253000A10900201C0C0020B20C0020C40A0020BD
:102540001B5A0100641E0020700C00201FB5041CE3
:10255000211C02AA03AB094802F0D2FA0849E2B2F0
:10256000031C885C002807D0064903988A5C211C5C
:102570000092029AFFF75AFF04B010BDAC0600208B
:1025800082120020720C0020F8B52D4B1A78002A18
:102590000BD02C4C2388012B04D12B4802F048FB94
:1025A00000232380238801332380254A5378002B7E
:1025B0002BD0264D2B88022B24D1234802F040FC3F
:1025C00000232B80224B1B78002B1BD1214B1F7823
:1025D000FFB2002F16D101241F4E1C7033780D203E
:1025E000002B04D0391C0AF057FF377007E0211C7C
:1025F0000AF052FF0D20211C0AF0A8FF3470154A82
:10260000002313702B8801332B800D4A9378002B05
:1026100002D00D4802F058F9094AD378002B02D0B5
:10262000094802F0FCF80D4C23883C2B04D90648DD
:1026300002F0CAFA00232380238801332380F8BDE7
:102640001D00002070120020AC060020A40900200C
:10265000AC0A00201E0C0020A0090020200C002045
:1026600037B581020A480DF06BFB0A4C451E208AE3
:10267000228B0021009580B292B20B1C0BF0A6FFBA
:10268000ADB280B220822583E37BDB09FCD137BD6C
:10269000006CDC02002C00421D4A1E4B70B51A80F3
:1026A0001D4B5B78DB09FBD11C4C02222388934332
:1026B0002380E27B194BD209FBD11A8892B21A808F
:1026C000E27B164BD209FBD11A8820210A431A80DB
:1026D000E27B124BD209FBD11988E022D2000A43D7
:1026E0001A80E67B0D4DF609FBD1FFF7B9FF6E733B
:1026F0006B7B102213436B738022094BD2021A604A
:102700002B88022213432B80E37BDB09FCD170BDB5
:102710001B400000020C0040000C0040002C004256
:1027200000E100E0024B02211A888A431A807047B8
:10273000002C004208B5054B9A7BD10605D59A7B43
:1027400010210A439A73FFF71FFF08BD002C0042B7
:1027500037B5174C1749201C0BF06EF8164D281C86
:1027600007F0ADFA011C201C0BF094F8281C07F0B0
:10277000A4FA011C68460AF0C7FF201C0F490BF0A1
:102780005BF86946201C0BF08FF8281C07F0A4FAB0
:102790000B49051C201C0BF04FF8291C0A22201C99
:1027A0000BF0B3F8201C07490BF074F837BDC04696
:1027B000641E0020DA5B0100FC1500204659010070
:1027C000535901006B59010010B5FFF7ABFF1448D6
:1027D0002C3004F01CFF134B134C1B68032B02D14D
:1027E000201C07F00FFA201C07F022FA0F4B1B7871
:1027F000002B04D00D2001210AF04EFEF6E70D203B
:1028000000210AF0A3FE0021094807F063F80D201B
:1028100001210AF09BFE01200AF0EAFAEFE7C04628
:10282000AC06002098090020FC1500201E0C00209A
:10283000F0150020F8B5174D2C7F0D2C1DD1164F2B
:102840003978C9B2002921D1201C01263E700AF036
:1028500023FE287F0AF0AAFE104BC5B21B78002B7E
:1028600007D0201C311C0AF017FE201C311C0AF076
:102870006DFE00233B70281C09E00D2000210AF0AA
:102880000BFE287F0AF092FEC0B200E0FF2040B2AB
:10289000F8BDC046AC0600201E0C0020A009002098
:1028A000F0B5041C2E488FB00378002B55D0A168DA
:1028B000002952D02B4D01A82F68FFF747FD2A4968
:1028C0002A4A05AE8918301C3A1C294B05F0B1FA8A
:1028D000284F3B1C103307CE07C307CE07C307CED4
:1028E00007C3029B039804993E7C7B60B860F96043
:1028F0000022002E26D0204B1A801F4B1988A36877
:102900000AB29A4219D280209E1A1C4D400086427B
:1029100003D90131FF31298000E02B8000202B5E9C
:10292000211C01A80BF0F4FF01A9381C0AF07CFF60
:1029300001A80BF057FE2A88DDE7381C103005F09F
:1029400071FA0AE00E4C0F49201C0AF075FF291C91
:10295000201C0AF095FF02490E7000200FB0F0BD58
:10296000AC0A0020240C0020340200203C040000AB
:1029700002420000380C0020080C0020A00C0020AF
:10298000641E00207059010008B54368002B09D06F
:10299000002902D001391B68F8E71A79072A01D10A
:1029A000986801E0FFF7C4FC08BD37B5041C201C83
:1029B000FFF795FC0D280AD004D80938C0B20128C9
:1029C0004FD804E0202802D02F2805D049E06379B1
:1029D000237100236371EAE76379002B09D16D4607
:1029E000EB7107352068291C01220BF094FB2B7832
:1029F000637163792A2B02D02F2B29D031E0002379
:102A000063716379201C237100236371FFF767FCF6
:102A1000002826D0201CFFF762FC2A28F1D1637918
:102A2000002B09D16D46EB7107352068291C012266
:102A30000BF071FB2B78637163792F2BE1D10023AD
:102A400063712371B3E7201CFFF749FC0A28AED05D
:102A50006379201C237100236371FFF740FC002879
:102A6000F1D137BD38B5041C0D1CFFF79EFF201CAB
:102A7000FFF735FC0023A84203D16279637122710C
:102A80000123181C38BD0000F7B5C468051CE168B7
:102A900060682E1D40180190301CFFF786FF301C27
:102AA000FFF71DFC071C272F07D0222F05D0031C82
:102AB000303BDBB2092B4BD92DE06B7A2B72002314
:102AC0006B72301CFFF70BFC031E35D06A7A2A723A
:102AD00000226A72B8422FD05C2813D1301CFFF755
:102AE000FEFB244A031C1178002905D0814201D144
:102AF000537801E00232F6E7002B1DD06A7A2A7281
:102B000000226A72E268A068511C8142D9D8E16053
:102B100061688B54D5E7031C5F3BDBB21B2B17D9D5
:102B2000031C413BDBB2192B12D92B2810D0031CFC
:102B30002D3BDBB2012B0BD9E268A168531C0020AE
:102B40008B4215D86168E3608A18107001980FE015
:102B50006B7A2B7200236B72E268A168531C8B4264
:102B600002D8E36063689854301CFFF7B8FB9EE717
:102B7000FEBDC046115A010038B544680D1C002C3A
:102B800012D06168002D01D0002903D1691A4B428F
:102B9000594104E0281C10F077F941424141C9B283
:102BA000002901D12468EAE7201C38BDF0B5037C78
:102BB00085B0041C002B62D00568013B0374291CFE
:102BC0000820FFF79DFB00285CD0002305604360D0
:102BD000261D051C7B21301CFFF744FF00284ED02A
:102BE000301C7D21FFF73EFF002843D1201CFFF75A
:102BF0004BFF071E43D0301C3A21FFF733FF00285C
:102C00003DD002A900236A46201C0091137200F0F7
:102C10003EF8002833D0281C391CFFF7ADFF019087
:102C2000002816D110202968FFF76AFB002802D07F
:102C3000019B036003726B68002B06D01A68002AA0
:102C400001D0131CFAE7186000E06860002816D075
:102C50004760009B083006CB06C0301C7D21FFF783
:102C600001FF002806D1301C2C21FFF7FBFE0028B5
:102C7000BCD104E0237C281C0133237405E0FFF75A
:102C800057FB02E0FFF754FBA2E705B0F0BD70B5BB
:102C9000061D051C301C0C1CFFF787FE301CFFF7BF
:102CA0001EFB5B2802D07B2808D012E0281C00F015
:102CB0002BF80368002B25D0062306E0281CFFF71D
:102CC00075FF0368002B1DD007236060237001206F
:102CD00019E0301CFFF703FB272805D0061C223E15
:102CE00070424641F6B200E00126281CFFF7CCFEF8
:102CF000002808D00123002E02D00222227000E01A
:102D000023706060181C70BDF0B5037C85B0041C96
:102D1000002B4ED00568013B0374291C0820FFF7E7
:102D2000EFFA002848D0002305604360261D051CEB
:102D30005B21301CFFF796FE00283AD0301C5D2145
:102D4000FFF790FE00282FD1002702A96A46201C19
:102D500001911772FFF79BFFB8422AD00C20296817
:102D6000FFF7CEFAB84201D0076007716B68002BFD
:102D700006D01A68002A01D0131CFAE7186000E098
:102D80006860002815D0019B043006CB06C0301CBB
:102D90005D21FFF767FE002806D1301C2C21FFF7CC
:102DA00061FE0028D0D104E0237C281C0133237469
:102DB00005E0FFF7AFFA02E0FFF7ACFAB6E705B0BF
:102DC000F0BD0000031C70B50C1C03CBFFF7D4FE54
:102DD000051E13D0067A012E07D1C168002904D040
:102DE000074810F051F8002808D0013E012E05D800
:102DF000EB68201C002B02D0181C00E0201C70BDCA
:102E00001C5A010008B5FFF7B7FE002804D0037A6A
:102E1000062B01D1C06801E0FFF77CFA08BD000075
:102E2000F0B53C4C051CA54405AE0468301CFFF70A
:102E30008DFA3949394A0023891809A8221C04F05F
:102E4000F8FF09AB364C1F78201C002F0BD13549F9
:102E50000AF0F2FC291C201C0AF0E6FC201C324976
:102E60000AF018FD25E031490AF0E6FC291C201C77
:102E70000AF006FD16AB139380239B0014932C4B92
:102E8000002512AA129302AB019600921D706B46A8
:102E90005D72684603920A236A4615951374FFF71C
:102EA00085FE0768061CAF4205D1201C21490AF0A7
:102EB000DDFC381C29E0204C211CFFF7A3FF291C56
:102EC000FFF762FD1D4F1E4B0090391C68460193B1
:102ED000FFF778FF011C1B480BF026FC211C301C5F
:102EE000FFF790FF291CFFF74FFD174B0090391C8F
:102EF00068460193FFF766FF011C12480C300BF087
:102F000013FC09A804F08EFF012097239B009D4429
:102F1000F0BDC046A4FDFFFF340200203C040000C9
:102F2000641E0020215A0100275A0100325A010074
:102F3000385901003C5A0100585A01001B5A01003F
:102F4000685A0100880C00206D5A0100F7B5434B08
:102F5000434A00249C54434A64219C548C22D2004E
:102F60009954414A41499C54414A424E9950424ADF
:102F7000424F9C548E22D2009C54DC71381C311C70
:102F80000BF077FB381C311C0C300BF072FB3C4D06
:102F9000381C3C492A1C0FF0C3FD231C221C211C99
:102FA000009439480AF0A2FB38480AF097FB3848E9
:102FB00007F034FA374F311C381C0BF05AFB364CF3
:102FC0002A1C211C381C0FF0ABFD344F311C381C5F
:102FD0000BF04FFB211C2A1C381C0FF0A1FD304FB9
:102FE000311C381C0BF045FB211C2A1C381C0FF02F
:102FF00097FD2C4F2C49381C0BF03BFB211C2A1C45
:10300000381C0FF08DFD294F2949381C0BF031FB7E
:10301000211C2A1C381C0FF083FD264C201C01F0BB
:103020007DF92A1C201C24490FF07AFD2348FFF764
:103030008DF9234B8A221C1C52000C349F18201C33
:103040000C38311C0C340BF014FBBC42F7D12A1C99
:103050001C4900200FF064FDF7BDC046340200207B
:103060003C0400003D0400006A04000000093D002B
:103070006C0400001B5A010071040000880C002041
:1030800000000020912100000C0C0020781200208C
:10309000C40C0020DC0A0020E5E50000B40A002092
:1030A000C40A0020240C0020765A0100D00A002017
:1030B000825A0100AC060020A5210000380C002037
:1030C000000B002071210000F0B5724C8FB07249E6
:1030D000201C0AF0DFFB0D2001210AF0DDF901219F
:1030E0000D200AF033FA6D4B01221A7009F048FEE8
:1030F0006B4D6C4928606C480BF093FA271C002834
:1031000002D1201C6949ADE0FA20400009F070FEB0
:10311000201C67490BF0C6FC6649201C0AF0BAFB6C
:10312000FA20400009F064FE634C0021201C0AAD27
:1031300001F059FD201C0021102202F041FF281C43
:10314000002110220FF0B0FD3C236B80AB80EB80A0
:103150002B800F23AB812B816B81EB6804260093BE
:10316000AB686A680A9904AD201C01F0A1F9321C11
:10317000281C52490FF076FD02236B70AB70EB7088
:103180002E700499201C01F0A2F9FA20400009F0E9
:103190002FFE4B49381C0AF04FFB231C44331A788E
:1031A00006A900230B7069464B76464D8C23DB0045
:1031B000EE18454B301CE918069B2C1C0093434B22
:1031C00005F050FF002800D188E1414A2E60A81880
:1031D00004F028FE0121281C05F06CFD011E09D019
:1031E0003B4B211CE518281C04F0C9FB002800D12A
:1031F00074E105E0281C05F05DFD0028F0D16DE1CB
:10320000334BE25C70231A4200D167E1314B324903
:10321000381C1D600AF03EFB08220023391C281CC4
:1032200005F087FB2D49381C0AF0FAFA2C4C381CA3
:10323000211C0AF025FB211C07A80BF063FA07A844
:10324000FFF7EEFD041C07A80BF0CCF9002C0DD104
:103250002449381C0AF01EFB2349381C0AF01AFBCB
:103260002249381C0AF016FBFFF7AEFA204D022364
:103270000093281C08210722042306F045FB281C84
:1032800006F0E6FE281C06F055FDFF284FD1381C3D
:103290001849E7E7641E00208D5A0100A0090020AC
:1032A0006412002088130000DC0A0020955A0100F7
:1032B00080841E00B95A0100AC060020405901006C
:1032C000C85A0100340200206C040000808D5B00AD
:1032D0003C04000064150020E05A0100F25A01008D
:1032E000D00A00200F5B01003A5B01006E5B010019
:1032F000FC150020A95B010009F042FD7D4A7E4BD0
:103300001268801A9842AFD87C49381C0AF094FAA7
:103310007B4E381C311C0AF0B3FA3168F268281C65
:1033200006F007FC2060FA20800009F061FD754C72
:103330002668032EE0D1744B01247449381C1C709C
:103340000AF0A8FAFFF704FA381C71490AF0A2FA49
:10335000704B7148198806F019FF704B1C7009F00A
:103360000FFD6F4B0F2118606E4806F077FE6E4D13
:103370006E49281C0BF0D8F9281C6D490C300BF055
:10338000D3F9281C6B4918300BF0CEF9281C6A4978
:1033900024300BF0C9F9281C684930300BF0C4F90F
:1033A000281C67493C300BF0BFF9281C65494830A0
:1033B0000BF0BAF9281C644954300BF0B5F9281CFD
:1033C000624960300BF0B0F9281C61496C300BF099
:1033D000ABF9281C5F4978300BF0A6F9281C5E4930
:1033E00084300BF0A1F9281C5C4990300BF09CF95B
:1033F000281C5B499C300BF097F9281C5949A830D0
:103400000BF092F9281C5849B4300BF08DF9281CA8
:103410005649C0300BF088F9554956480BF084F9ED
:10342000534954480BF080F9281C5349D8300BF00D
:103430007BF9281C5149E4300BF076F9281C5049DF
:10344000FC300BF071F9281C4E49F0300BF06CF990
:103450004D4B06221A705A709A7002210022DA70BF
:103460001A715A71DA71DA731A745A74DA749974B7
:103470009E711E725E729E72DE721E735E739E730A
:10348000424B1C705C709C70DC701C715C719C7198
:10349000DC711C725C729C72DC721C735C739C73BA
:1034A000DC731C745C749C74DC745C751C7509F0B2
:1034B00067FC374B186009F063FC364B36491860DF
:1034C000381C0AF0E7F93549381C0AF0E3F93C20CA
:1034D000FFF7E2F8324B1C700FB0F0BD381C3149D9
:1034E0000AF0AAF9304E381C443631780A220AF024
:1034F00042FAB9E66412002030750000C15B010099
:10350000880C0020980900200A0C0020E15B0100D3
:10351000F35B010014000020C40C00209A1200206C
:103520009C090020FC150020000B0020155C010008
:10353000185C01001B5C01001E5C0100215C0100A5
:10354000B4600100245C0100275C01002A5C0100DA
:103550002D5C0100305C0100335C0100365C010031
:10356000395C01003C5C01003F5C0100425C0100F1
:10357000455C0100CC0B0020485C01004B5C010065
:103580004E5C0100515C0100720C00208212002090
:10359000B00A00206C120020545C0100635C010042
:1035A000C00A0020775C0100AC060020F0B5CD4ECB
:1035B000CD4F97B000222C21301C3A800BF080F9BF
:1035C000CA4C82B22280013292B22C21301C3A8045
:1035D0000BF076F93A8883B2311C208009A80BF0F1
:1035E00097F909A80BF0BAF9C14B188009A80AF09D
:1035F000F9FF22882C21013292B2301C3A800BF064
:103600005FF93A8883B2311C208009A80BF080F959
:1036100009A80BF0A3F9B74B188009A80AF0E2FF3C
:1036200022882C21013292B2301C3A800BF048F9EA
:103630003A8883B22080311C09A80BF069F9AE4D9D
:1036400009A9281C0BF068F809A80AF0CBFF22880A
:103650002C21013292B2301C3A800BF031F982B247
:103660002280013292B22C21301C3A800BF028F9D2
:10367000A24F80B2208001303880A149281C0BF075
:103680000AF90190002844D09E4C2378002B08D1E1
:103690009D4909A806F096FE9C4B0A9959600123A2
:1036A00023709B4D2B78002B01D100247FE1994999
:1036B00003A80AF0DEFF09F063FB9749041C06A883
:1036C0000AF0D7FF06AA002309A8211CFEF74AFE2C
:1036D00009A903A80BF020F809A80AF083FF06A89F
:1036E0000AF080FF03A98D480AF0CAF88C4C8D4976
:1036F000201C0BF063F8201C03A90BF058F88A4B30
:1037000000241A8803A801321A802C700AF06AFF7C
:103710004DE1281C85490BF0BEF800281DD03A88E1
:103720002C21301C0BF0CCF83A8883B22080311C5D
:1037300009A80BF0EDF809A80BF010F9041C09A872
:103740000AF050FF7A4BA4B21A68A24201D00024BA
:10375000B7E0012252421A60F9E7281C75490BF0C4
:103760009AF80028F3D1281C73490BF094F800282C
:10377000EDD1281C71490BF08EF8002800D1A2E091
:10378000B3683A88013B03A8311C0BF0C1F803A9C8
:1037900009A80AF0B7FF6A4909A80BF069F8011CEB
:1037A00006A80AF0AFFF09A80AF01CFF09A8069DA9
:1037B000FEF7CCFD6349644B0DAC2A1C201CC918D4
:1037C000624B04F036FB6249201C0B1C1033A4C86A
:1037D000A4C3B0C8B0C334C834C30C9B0A9F0B9AAF
:1037E000CB600B7C4F608A600C1C002B16D003A9A9
:1037F00009A80AF087FF5748211C09AA01F034FFE5
:10380000051C09A80AF0EEFE002D03D143485249D9
:103810000AF02CF8201C103004F004FB03A909A8BE
:103820000AF070FF4D4909A80BF022F84C4D011C1D
:10383000281C0AF057FF09A80AF0D4FE09A82F682F
:10384000FEF784FD3F49404A0DAC8918201C3A1C04
:103850003E4B019404F0EDFA3D4F201C3B1C10330D
:1038600016C816C316C816C316C816C30B9C0A9BE7
:10387000BC603C7C0C9901947B60F960019F274CF3
:10388000002F13D0374B0127201C37491F7009F038
:10389000D3FF201C291C09F0C7FF201C334909F065
:1038A000F9FF334804F0BEFA3C1C04E0201C314907
:1038B00009F0F0FF019C06A80AF094FE03A80AF0A4
:1038C00091FE012574E0281C2B490AF0E4FF002832
:1038D00058D02A4B01242A4910481C7009F0DAFFFD
:1038E00065E0C046B40A0020140C0020B40C00208F
:1038F000A209002098120020E80A0020801200206F
:10390000A35C0100220C0020C40C002078120020CF
:10391000C00A00201B5A0100A65C0100641E0020A2
:10392000DC0A0020416A01001C0C0020A95C010097
:1039300018000020AC5C0100AF5C0100B25C01002B
:10394000B55C0100340200203C040000024200008B
:10395000380C0020AC060020C05C01007D5A01003C
:10396000240C0020AC0A0020DD5C01002A5D01006F
:10397000480C0020F25C0100175D01006812002075
:103980001A5D0100281C50490AF085FF0124002817
:103990000DD1281C4D490AF07EFF002800D184E695
:1039A0004B4B01241C7009F0EBF94A4B1860251CA5
:1039B000494F0122396811420AD1484948480AF062
:1039C00058FE012346484749474A3B600FF0A8F894
:1039D000002D3BD0424D4549281C0AF0A5FE09F0B8
:1039E000CFF94349071C06A80AF08CFE414B06AAF2
:1039F0001B8809A8391CFEF7B5FC09A9281C0AF088
:103A0000D6FE09A80AF0EEFD06A80AF0EBFD2C216F
:103A1000281C0AF0E0FE384B09A81A88B368311C4C
:103A2000013B0AF075FF09A9281C0AF0C0FE09A88D
:103A30000AF0D8FD291C314809F0F6FE3048291C4F
:103A40000AF0B5FE2F4B1A8801321A80002C38D0AC
:103A5000234C2649201C0AF067FE09F091F92A49F7
:103A6000051C06A80AF005FE06AA022309A8291CBF
:103A7000FEF778FC09A9201C0AF099FE09A80AF0B3
:103A8000B1FD06A80AF0AEFD2C21201C0AF0A3FE11
:103A90001E4B201C19880AF0B8FE2C21201C0AF0AD
:103AA0009AFE1349201C0AF082FE211C134809F0DB
:103AB000BBFE1348211C0AF07AFE124B1A88013211
:103AC0001A8017B0F0BDC0462E5D0100315D0100C7
:103AD0005E12002060120020741200201B5A0100A8
:103AE000F40A0020E5E5000000000020416A010022
:103AF000E80A00209812002080120020641E002096
:103B0000DC0A00201C0C0020A95C0100A209002096
:103B10007FB51A4B1B78002B2ED0194D281C06F0B0
:103B2000A9FB002828D02B68164C80229B6B281CF0
:103B3000211C5200984700281EDD00232354211C1D
:103B400001A80AF096FD01A90F480AF0E5FD01A8B9
:103B50000AF048FD0D4D01262B6833420AD10C4C6A
:103B60000C49201C0AF085FD201C0B490B4A2E60D5
:103B70000EF0D6FFFFF71AFD7FBDC0469A12002057
:103B8000C40C0020AC090020B40A0020300C002036
:103B9000E80A00201B5A0100E5E5000000000020B3
:103BA000F0B5304B85B01B78051C002B57D02E4F3D
:103BB00000223B78002B52D02C4B2C4E1A80002137
:103BC000725EAB689A424AD2294C23800021625E21
:103BD0000023F15E8023511A9B00994206DD013AD1
:103BE000281C0A210AF07BFE2080EFE73B78002B9F
:103BF00031D0204B00261B78002B2CD01E4B1B787D
:103C0000B34228D91D4B1E4C01931E4B201C5B68F0
:103C10000136029306F0EAFB01A9021C201C06F003
:103C20007DFA124B01A800215A5E114BF6B2002119
:103C30005B5E291C0AF06CFE01A9201C09F0F4FD52
:103C400001A80AF0CFFC201C06F052FB0E4B1A68AC
:103C500001321A60D2E7064B1A880132ACE7002025
:103C600005B0F0BD0A0C00209A1200205C12002062
:103C7000B00C0020220C00201C000020386A01003B
:103C8000C40C0020781200206C0C002070B52E4D62
:103C900001262B6886B02D4C334209D12C49201CBB
:103CA0000AF0E7FC201C2B492B4A2E600EF038FF4F
:103CB0002A49201C0AF038FD09F062F82849051C41
:103CC00068460AF0D6FC6A460223291C03A8FEF7C0
:103CD00049FB03A9201C0AF06AFD03A80AF082FC34
:103CE00068460AF07FFC201C2C210AF074FD201C81
:103CF0001C490AF063FD201C2C210AF06CFD1A49B6
:103D0000201C0AF05BFD201CFFF74AFF211C17480E
:103D10000AF04DFD164B174C1A88226001321A80AA
:103D200009F02EF8144B18601D1C2368002B08DDC9
:103D300009F026F82B68C01A632802D8FFF7E8FEBE
:103D4000F3E7002006B070BD180C0020A40C002082
:103D50001B5A0100E5E5000000000020416A010057
:103D6000345D0100AC5C0100AF5C0100DC0A0020A6
:103D70001C0C002018000020B00A0020084B10B5D1
:103D80001B78041C002B03D00648211C09F04CFDB5
:103D9000201CFFF705FF201CFEF782FD10BDC0466A
:103DA000B20C0020641E002038B5164C1649201CA9
:103DB00009F070FD154D201C29680A2209F0E5FD67
:103DC000134B0A221968201C09F0DFFD1149201C41
:103DD00009F060FD104B00241C70104B10481C7043
:103DE00006F0C6F90F4805F00DFF0F4B1C6008F0F8
:103DF000C7FF0E4B2C601B68DB4318180C4B186078
:103E000038BDC046641E0020375D01006C0C0020E8
:103E10000C000020535D01000A0C00209A120020C3
:103E2000C40C0020FC150020980900200800002088
:103E30009C090020F8B54A4C4A49201C09F02AFD8B
:103E400008F09EFF0A22011C201C09F09EFD464E30
:103E5000301C05F06FFF454D011C28600A22201C14
:103E600009F071FD2B68424E032B03D0414A002319
:103E70003370137008F084FF0A22011C201C09F023
:103E800084FD201C3C4909F005FD3378002B07D048
:103E90003A4B1A683A4B1B689A4201D9FFF784FFE4
:103EA0003378002B4FD108F06BFF364E364F336816
:103EB000C01A3B6898422ED93449201C09F0EAFC0C
:103EC00008F05EFF0A22011C201C09F05EFD396823
:103ED0000A22201C09F059FD284B0A221968201CCF
:103EE00009F053FD264B0A221968201C09F04DFDEC
:103EF000274B1D481968DA6805F01BFE286008F09A
:103F00003FFF0A22011C3060201C09F03EFD201CEE
:103F1000204909F0BFFC2B68032B1FD1144B012251
:103F20001D49201C1A7009F0B5FCFEF711FC134B5B
:103F300000221A6008F024FF134B1B68DB4318189B
:103F4000104B18600AE00B4C2378002B06D1134B62
:103F50001348198806F01AF901232370F8BDC046EA
:103F6000641E0020645D0100FC15002098090020FB
:103F70000A0C00209A120020805D01006C0C0020C9
:103F80000C0000209C09002008000020915D010029
:103F9000880C0020AC5D0100BD5D01001400002014
:103FA000C40C0020F0B58DB0FFF744FFFFF7B0FD63
:103FB000FEF740FC002802D1654B18701BE0FEF7AD
:103FC00039FC041E012C16D1614B1A78002A0DD041
:103FD000604D2B78002B0ED108F0D2FE5E4B1B6893
:103FE000C01A5E4B1B68984259D804E0187008F05C
:103FF000C7FE594B186008F0C3FE594C2368C01A1D
:10400000584B984204D908F0BBFE2060FFF73EFEF3
:1040100008F0B6FE544C2368C01A642804D8534BE9
:104020001A8801321A802BE008F0AAFE20600024D2
:10403000201CFEF78BFA01340190162CF8D14C4C61
:10404000201CFFF79BFE201C4A490AF06DFB4A4BDF
:104050001B78002B11D0494F3E78F6B2002E0CD1C0
:104060000124474D3C702B78002B5CD00D20311C77
:1040700009F012FA2E7000233B70019B002BCED06A
:10408000344B1B78002B58D008F07AFE3D4B1B6850
:10409000C01A3D4B1B6898424FD9FEF795FB2C7018
:1040A00008F06EFE374B3349186003A80AF0E1FAB6
:1040B000364903A80AF038FB08F062FE3449041CB4
:1040C00006A80AF0D6FA06AA022309A8211CFEF7C0
:1040D00049F909A903A80AF06AFB09A80AF082FABB
:1040E00006A80AF07FFA03A82C210AF074FB03A8A3
:1040F00028490AF063FB03A82C210AF06CFB03A8F3
:1041000025490AF05BFB03A9244809F0B9FB03A980
:1041100017480AF04CFB224B03A81A8801321A8078
:104120000AF060FA67E70D20211C09F0B5F90D20AF
:10413000211C09F00BFA2C709DE71A4B1A78002A03
:1041400003D00D4900220A701A700DB0F0BDC046B0
:104150009B1200205E120020A80900201000002001
:104160006C120020F3130000B00A0020700C002035
:10417000DC0A00201B5A0100AC0A00201E0C0020A3
:10418000A00900206012002024000020416A0100E4
:10419000A95C0100DF5D0100315D0100641E0020AB
:1041A0001C0C002068120020002310B54360C3607F
:1041B000FE23041C01605B058800994201D901209F
:1041C000404209F007FBA060201C10BD10B5041C84
:1041D0008068002801D009F005FB201C10BD38B50F
:1041E000041C0D1C23686168012099420ED2002A2C
:1041F00003D108F0C5FDE06001E01268E260636889
:10420000A1689A00013355500020636038BD002337
:104210004360C360704740687047002370B5041C5A
:104220000374437410200E1C09F0D0FA311C051CD5
:10423000FFF7BAFF2560102009F0C8FA311C051CF1
:10424000FFF7B2FF23686560E560201CA36070BDC6
:1042500038B505680023041C8360C3609D4205D007
:10426000281CFFF7B3FF281C09F0B8FA6568002D79
:1042700005D0281CFFF7AAFF281C09F0AFFA201C64
:1042800038BD08B5031C012018749868002802D0B6
:10429000FFF7A5FF00E0187408BD012370B5437453
:1042A0008368041C0E1C151C002B19D0C068002844
:1042B00016D0FFF7ACFFA16822686368914202D173
:1042C000A360E16001E0A260E360E3689B683360A3
:1042D000E068002D01D0C3682B60FFF79CFF01E070
:1042E0000023637470BD000010B5041C211C08205D
:1042F000FEF706F8002803D000230460436008E0BE
:10430000044901220B680448134002D10360436052
:104310000A6010BD2C0200201C02002070B5041C95
:1043200002F072FA604E201C311C0C221E300EF07E
:1043300099FC201C2C3002F0C1FF231C56330025B1
:10434000201C1D705D70291CA56510225C300EF0CC
:10435000ABFC311C201C04220C316C300EF082FCB2
:10436000201C40218830FFF758FF201C40219C3042
:10437000FFF753FF201C4021B030FFF74EFF201CF9
:104380004021C430FFF749FF201C4021D830FFF7FF
:1043900044FF201C4021EC30FFF73FFF601C402110
:1043A000FF30FFF73AFF8A235B00E0184021FFF758
:1043B00034FF94235B00E0184021FFF72EFF9E237B
:1043C0005B00E0184021FFF728FFA8235B00E018FE
:1043D0004021FFF722FFB2235B00E0184021FFF7E6
:1043E0001CFFBC235B00E0184021FFF716FFC6232B
:1043F0005B00E0184021FFF710FFD0235B00E018BE
:104400004021FFF70AFFDA235B00E0184021FFF7A5
:1044100004FFE4235B00E0184021FFF7FEFEEE23DB
:104420005B00E0184021FFF7F8FEF8235B00E0187E
:104430000121FFF7F2FE81239B00E0180121FFF725
:10444000ECFE86239B00E0184021FFF7E6FE8B235D
:104450009B00E0184021FFF7E0FEA6239B00E01838
:104460000821FFF7A1FEAA239B00E0180821FFF70F
:104470009BFEAE239B00E0180821FFF795FEB223B8
:104480009B00E0180821FFF78FFEB6239B00E01881
:104490000821FFF789FEBA230E229B00E254034B4A
:1044A000201CE55470BDC046F85D0100E902000023
:1044B00084B010B55C3003910492059303AC0ECC2C
:1044C0000EC02468046010BC08BC04B0184782B059
:1044D000C16602B070470000F7B5151C009101934A
:1044E000141C0099631B4A1B0199A2189BB2D2B2FB
:1044F0008B421BD20E4E4D21301C02F0A4FD0A202F
:1045000008F076FC1B21301C02F099FD071C0120ED
:1045100008F06EFC04210F42F4D1301C02F08FFD34
:104520002070012008F064FC0134DAE7F7BDC046D2
:1045300010150020F0B587B003AD041C01AF0021B9
:10454000281C0A2202AE398002910EF0ADFB201C1D
:104550003A1C5D210223FFF7BFFF201C321C6221A1
:104560000423FFF7B9FF201C2A1C68210A23FFF748
:10457000B3FF3A78231C46331A707A785A70B278AF
:104580009A70F278DA70EA78AB7812021A43231C38
:104590004A331A806A782B7812021A43231C4C3350
:1045A0001A80EA79AB7912021A43231C4E331A801F
:1045B0007278337812021A43231C50331A806A7AB5
:1045C00054349A702A7ADA706A797F2313402A79F0
:1045D0001B021343238007B0F0BD0000F8B53B4B2E
:1045E000041C0E1C151C99426AD0002A68D0031CBA
:1045F00054331888002863D00CF060FB8D21C90566
:104600000CF046F8071C281C0CF0FCFA011C381CA6
:104610000BF05AFE8D21C9050CF064F9051C301C05
:104620000CF0F0FA061C532020560CF0EBFA291C73
:10463000071C281C0CF02CF8C62189050CF028F862
:10464000011C381C0CF024F8231C5233071C18786A
:104650000CF034FB011C281C0CF01AF8E22189052F
:104660000CF016F8011C381C0BF0CAFC8721C90598
:104670000BF0C6FC051C482020560CF0C3FA144968
:104680000BF0BEFC011C281C0CF002F8011C301CB5
:104690000BF0FEFFE42189050BF0FAFF051C462014
:1046A00020560CF0AFFA8221C9050BF0F1FF011C76
:1046B000281C0BF0A5FCF62189050BF0E9FF03E0AF
:1046C0005634012323700020F8BDC04600F0FFFFE0
:1046D00000002043F8B53B4B041C0E1C151C9942EE
:1046E0006AD0002A68D0031C54331888002863D08D
:1046F0000CF0E4FA8D21C9050BF0CAFF071C281C39
:104700000CF080FA011C381C0BF0DEFD8D21C90570
:104710000CF0E8F8051C301C0CF074FA061C532051
:1047200020560CF06FFA291C071C281C0BF0B0FF58
:10473000C62189050BF0ACFF011C381C0BF0A8FF4B
:10474000231C5233071C18780CF0B8FA011C281CE3
:104750000BF09EFFE22189050BF09AFF011C381C2B
:104760000BF04EFC8721C9050BF04AFC051C4920C3
:1047700020560CF047FA14490BF042FC011C281C8F
:104780000BF086FF011C301C0BF082FFE421890531
:104790000BF07EFF051C472020560CF033FA8221D7
:1047A000C9050BF075FF011C281C0BF029FCF62134
:1047B00089050BF06DFF03E05634012323700020C0
:1047C000F8BDC04600F0FFFF00002043F7B5CDB2B2
:1047D000061C0F1C01921C1C152D1DD8002B02D18C
:1047E00008F0CEFA2060FF2217409037BF00B8597A
:1047F0000199221CFFF745FD0023C2070DD5A42314
:104800009B00281CF6580CF059FA221C011C301C85
:10481000FFF737FDFF2300E0FC2358B2FEBDF8B5DB
:10482000041C2C34051C201C02F0BAFD0026201CA0
:1048300002F046FD00282AD0201C02F05DFD0CF09D
:104840003DFA0321021C0023281CFFF7BFFF071CB1
:10485000201C02F047FD0CF031FA0421021C002359
:10486000281CFFF7B3FF0743201C02F04FFD0CF09C
:1048700025FA0521021C0023281CFFF7A7FFFFB221
:104880003E430643201CF6B202F04AFDCFE770B269
:10489000F8BD000013B50193094B041CD218094858
:1048A00092B20023824209D9081C0CF0ABF901AB8B
:1048B000021C1521201CFFF789FFFE2358B216BDEC
:1048C000FF7F0000FDFF0000F0B589B0041C08F078
:1048D00057FA7D4D7D4B286000937D4B7D4E0193B3
:1048E0007D4B7E4F02937E4B321C03937D4B7E4863
:1048F00004937E4B7E49059306977E4B02F055FB51
:104900007B4B092100229A5E201C2B68FFF7C2FF17
:104910000023F25E0A212B68201CFFF7BBFF754BBA
:104920000B2100229A5E201C2B68FFF7B3FF704B0F
:104930000020185E0CF066F9E16F0BF0A9FEE02193
:1049400089050BF0A5FE2B1C021C0921201CFFF77A
:104950003DFF0023F05E0CF055F9E16F0BF098FE7F
:10496000E02189050BF094FE0A21021C2B1C201C5F
:10497000FFF72CFF5F4B261D0020185E0CF042F95C
:10498000E16F0BF085FEE02189050BF081FE0B2124
:10499000021C2B1C201CFFF719FF4C4B0C21002282
:1049A0009A5E201C2B68FFF775FF494B0D210022F2
:1049B0009A5E201C2B68FFF76DFF474B0E210022EB
:1049C0009A5E201C2B68FFF765FF404B0020185EA5
:1049D0000CF018F9F16F0BF05BFEE02189050BF08C
:1049E00057FE0C21021C2B1C201CFFF7EFFE384B3E
:1049F0000020185E0CF006F9F16F0BF049FEE02183
:104A000089050BF045FE0D21021C2B1C201CFFF715
:104A1000DDFE314B0020185E0CF0F4F8F16F0BF066
:104A200037FEE02189050BF033FE0E21021C2B1C02
:104A3000201CFFF7CBFE2A4B3A880021595E201C30
:104A4000FFF7CCFD0F21021C2B1C201CFFF7BEFE24
:104A5000244B3A880021595E201CFFF73BFE1021B1
:104A6000021C2B1C201CFFF7B1FE204B3A880021B2
:104A7000595E201CFFF72EFE5236021C2B1C201CF8
:104A80001121FFF7A3FE3378002B0ED015211A4A0F
:104A90002B1C201CFFF79AFE83222B1C201C1521A7
:104AA000D205FFF793FE00233370261C5736337868
:104AB000002B07D02B1C201C1521104AFFF786FE67
:104AC0000023337009B0F0BDC0120020B2120020E4
:104AD000C8120020B6120020D0120020C6120020FA
:104AE000B0120020BC12002010150020C4120020BB
:104AF000B4120020B812002000007041000088416C
:104B000038B5CDB2041C0020152D07D8C9B290319C
:104B100089000859111C1A1CFFF7BFFB38BD10B5DE
:104B2000031C7033041C187808F03EFC0CF0C6F827
:104B3000011C0BF065FA616F0BF0AAFDE16B0BF045
:104B4000C3FB10BD10B5FFF7EAFF1949041C0BF0B9
:104B50000BFA002829D1201C16490BF005FA002871
:104B60000BD01449201C0BF0BDFE011C0BF048FAC1
:104B700011490BF08DFD114910E0201C10490BF07C
:104B8000F3F9002810D00E49201C0BF0ABFE0D49A4
:104B90000BF09AFB09490BF07BFD00210BF030FA7A
:104BA0000CF010F8C0B201E001E0642040B210BD8A
:104BB000CDCC84409A9969400000BA420000E040A0
:104BC00033335340CECCAC3F10B5041CFFF7BAFFD3
:104BD00081239B00E4180CF015F80022011C201C16
:104BE000FFF74FFB10BD81657047000070B50F4C9B
:104BF00000230E1C23600025301CFFF70CFB8542B0
:104C000008D2B268AB00206899580BF0F9F9013569
:104C10002060F1E7301CFFF7FEFA0CF04FF8011CA2
:104C200020680BF051FB206070BDC046CC12002004
:104C3000F0B5031C723387B0041C187808F0B4FB7D
:104C40000CF03CF8754E231C73333060187808F074
:104C5000ABFB0CF033F8A622714D9200A21828602D
:104C60000292101C31680022FFF7B9FAAA239B00B8
:104C7000E318181C002229680393FFF7B0FA694F64
:104C800001233A681A4209D16749E06B0BF02AFE0A
:104C90000BF098FF654B012218603A605F4B624948
:104CA0001E68301C0BF04CF9002809D15F4B1868C6
:104CB0000BF0A8FF011C301C0BF056F9002805D0A2
:104CC0005B4B01221A70FE22019200E001902D68D8
:104CD0005549281C0BF034F9002809D1534B1868AA
:104CE0000BF090FF011C281C0BF03EF9002804D0AB
:104CF000504B01221A70FE2301930298FFF78BFAA2
:104D0000231C6C331B78984200D083E00299201C4E
:104D1000FFF76CFF414A03991060201CFFF766FF04
:104D20003E4A636FE56B11680590181C04930BF005
:104D3000AFFC291C0BF0C8FA384B061C186004990C
:104D400005980BF0A5FC291C0BF0BEFAA922344FE4
:104D50009200A5183860321C2B1C201C0121FFF783
:104D600035FD334B3E1C1B78002B06D0FE22201C49
:104D7000152192052B1CFFF729FDAD239B00E5189B
:104D80002B1C3268201C0221FFF720FD294B1B78C9
:104D9000002B06D08022201C1521D2052B1CFFF7EA
:104DA00015FD1F4BA16B18680BF09CFD616B0BF0A0
:104DB0008BFA1A4B19680BF023F9011C606F0BF08A
:104DC00091FD216C0BF080FA1B490BF061FC1B4B31
:104DD000021C186000212B1C201CFFF7F7FC019A15
:104DE000134F10433B78C0B20190124E002B02D1FA
:104DF0003378002B05D0201C152100222B1CFFF737
:104E0000E5FC0298FFF703FA0398FFF700FA002386
:104E10003B703370019B58B207B0F0BDAC1200205C
:104E2000A81200209C1200200000A041D8120020EF
:104E3000A0120020BA12002000247449D4120020CD
:104E4000F8B5041C01F0ECFC071E01D000257DE044
:104E5000201C01F003FD051E4BD0B6239B00201C37
:104E6000E61801F08FFE3A1C011C301CFFF7B7F961
:104E7000301CFFF7D0F9231C6D331B783D1C984282
:104E80000FD3311C201CFFF7B1FEB925AD00021C69
:104E90006319201C0821FFF799FC051C301CFFF743
:104EA000B6F9201C01F014FFB227BF00E619011C5F
:104EB0000022301CFFF793F9301CFFF7ACF9231CDC
:104EC0006E331B78984210D3311C201CFFF78EFEE6
:104ED000B527BF00021C0621201CE319FFF776FC52
:104EE0000543301CEDB2FFF792F9201C01F045FE9E
:104EF0002CE0201C01F0B4FC0028A7D0201C01F0FD
:104F000003FF134B011C1860AE239B00E6182A1CFC
:104F1000301CFFF764F9301CFFF77DF9231C6F3359
:104F20001B7898420FD3311C201CFFF75FFEB12580
:104F3000AD00021C6319201C0721FFF747FC051C6C
:104F4000301CFFF764F9201C01F012FE68B2F8BDB6
:104F5000A4120020031C103343608023DB00836015
:104F60000023C360014B03607047C046F05D010041
:104F700038B5041C0D1C0C202168FDF7C1F9002870
:104F800002D00023036003716368002B06D01A6807
:104F9000002A01D0131CFAE7186000E060600028C6
:104FA00003D0022303718560012038BD10B5041CB5
:104FB00021681020FDF7A4F9002802D00023036027
:104FC00003726368002B06D01A68002A01D0131CF4
:104FD000FAE7186000E0606010BD70B5051C0C1C9D
:104FE000161C002901D100200EE0FDF7C5FD0028A8
:104FF00005D1281CFFF7DAFF0028F4D0446036689A
:105000000822C6600272012070BD000070B5061C47
:1050100000680D1C002809D1124A012113681248AA
:105020000B401ED10360436011601AE0FFF75CF98A
:10503000041C002D14D0301C291CFDF79DFD0028F8
:1050400005D1301CFFF7B2FF002809D04560226867
:10505000002A02D0221C072100E0111C0172C2604C
:10506000201C70BD2C0200201C02002070B5051C05
:105070000C1C161C002901D100200DE0FDF77CFD61
:10508000002805D1281CFFF791FF0028F4D04460C8
:1050900002220272C660012070BD70B50468051C52
:1050A0000E1C002C02D1FDF735F925E00820211C4B
:1050B000FDF726F900281CD0002304604360041C7F
:1050C000002E14D0281C311CFDF756FD002805D1F8
:1050D000281CFFF76BFF002809D046602268002AD1
:1050E00002D0221C062100E0111C0172C260201CAB
:1050F00002E0FDF70FF9E2E770BD70B5051C0C1C6E
:10510000161C002901D1002013E0FDF735FD002811
:1051100005D1281CFFF74AFF0028F4D0446032680C
:10512000002A01DB042101E0524205210172C26024
:10513000012070BD70B5051C0C1C161C002901D186
:1051400000200EE0FDF718FD002805D1281CFFF710
:105150002DFF0028F4D04460328804210172C2601F
:10516000012070BDF8B5051C0F1C161C002901D1CB
:10517000002022E0FDF700FD041E05D1281CFFF7EA
:1051800015FF041EF4D0476033682868002B0FD049
:10519000B768036801371B68391C9847051E0CD097
:1051A00031683A1C0DF05EFD02232372E56002E0D7
:1051B00002222272E3600120FFE7F8BD70B5051CF2
:1051C0000C1C161C002901D100200EE0FDF7D4FCB8
:1051D000002805D1281CFFF7E9FE0028F4D0446020
:1051E000327804210172C260012070BD10B5041C28
:1051F000006808F025FB63681818606010BD10B5E2
:10520000041C006808F018FB63681818606010BD83
:1052100070B50D1C041C2221002D09D11049FFF787
:10522000EEFF1BE0201C5C21FFF7E0FF201C311C7F
:10523000FFF7DCFF2978002909D00A4B01351E78D9
:10524000002E09D05A788A42ECD00233F7E7201CAE
:105250002221FFF7CBFF01E0201CE9E770BDC0462B
:105260001C5A01000D5A0100F0B587B000226B46B0
:10527000071C0C1C5A7505AD201C0A210AF0A4FD60
:1052800030312970201C0A210AF05AFD2E1C041C02
:10529000013D0028F0D1381C311CFFF7B0FF07B0EA
:1052A000F0BD000000000000F0B5061C8BB0081C2B
:1052B0000C1C0AF03FFE002802D1301CA4491DE05E
:1052C000201C00210AF03CFE002806D0301C2D21B5
:1052D000FFF78CFF80221206A418201C00210AF080
:1052E00029FE00280DD1211C201C0AF089FE211C5A
:1052F0000AF020FE002804D09649301CFFF77FFFFB
:105300001FE1201C94490AF039FE002800D0F8E083
:10531000052320270093051C201C00210AF024FEF1
:10532000002825D0201C0DF0FFFA884B864A0AF091
:10533000D7FD00281CD0009A53B25A1C18D09B00ED
:105340000193019A854B201CD1580AF0F9FD0028E1
:1053500008D0834B019A201CD1580BF099F9ED1B12
:10536000041CADB2009B7F10013BDBB20093E2E76F
:10537000201C0AF00DFE7B4B019003900627029340
:10538000039BFAB2013F0092FFB2092B0AD902989F
:105390000A210AF0D5FC0A21029003980AF0D0FCF9
:1053A0000390EDE701980BF089FC011C201C0BF029
:1053B00099FA041C02980BF081FC011C201C0BF0D4
:1053C00067F9041C0AF0E4FD071C0BF077FC011CD4
:1053D000201C0BF087FA011C0AF012FE0AF0D8FD1F
:1053E000029AC419944219D3019B002401330193FA
:1053F000A54213D0092B11D901350122ADB201927A
:105400000CE0009A53B2002B20DD201C0A210AF088
:1054100097FC009B041C013BDBB20093201C0A217B
:105420000AF0D2FC0029ECD0009B0293301C0199B9
:10543000FFF71AFF009A002A28D06B461F3301930A
:105440006A4600236F46D3771E3701E00292EDE7EC
:10545000009B013BDBB200935BB201330CD0201CFC
:105460000A210AF0B1FC30313970201C0A210AF0FF
:1054700067FC013F041CEBE7029B019AD9B2511A69
:1054800001392E230B70301CFFF7B9FE2CB2002C13
:1054900019DA301C3449FFF7B2FE6B46002225337F
:1054A00064421A7009AD201C0A210AF0EDFC30316B
:1054B0002970201C0A210AF091FC2F1C041C013DBC
:1054C0000028F0D11AE0002D3BD0301C6521FFF7F9
:1054D0008DFE6B46002225331A7009AC2DB2281CB4
:1054E0000A210AF0D1FC30312170281C0A210AF06F
:1054F00075FC85B2271C013C002DEFD1301C391CF6
:10550000FCE60023009320271D1C154B009A201C4D
:10551000D31859690AF032FD002809D0009A134BBC
:10552000201CD31859690BF0B3F87D19041CADB2D7
:10553000009B7F10043B00931833E6D1FF220092BA
:10554000EAE60BB0F0BDC046F168E388B5F8E43E8A
:10555000085E01000F5E01008096184B400000209D
:105560002800002040420F000C5E0100580000207F
:1055700038B5051C00780C1C0138072840D80AF003
:10558000D5FB2B2636312D0922046968201CFFF734
:105590008BFE35E06D68081C5B21FFF727FE6D6808
:1055A000002D06D0281D211CFFF7E2FF2D68002DDD
:1055B00004D1201C5D21FFF719FE21E0201C2C21C5
:1055C000FFF714FEEEE7686800F020F818E069685D
:1055D000201CFFF71DFE13E069680EE0081C2D215A
:1055E000FFF704FE6968201CFFF73EFE08E06B68C9
:1055F000002B01D0034900E00349201CFFF7FFFD09
:1056000038BDC046185E01001D5E010038B5051C9E
:105610000C1C081C7B21FFF7E9FD6D68002D0FD0E5
:105620006968201CFFF7F4FD201C3A21FFF7DEFD1E
:10563000281C0830211CFFF79BFF2D68002D04D18A
:10564000201C7D21FFF7D2FD38BD201C2C21FFF747
:10565000CDFDE5E707B50023009169460193FFF70B
:10566000D5FF01980EBD0000F0B5FC4C071CA54409
:10567000019107A8FA49039208F0FBFF3B1C08338D
:10568000DB6FF8490AA8059308F0F3FF0DA8F64967
:1056900008F0EFFF019A0024137CA34201D100F02F
:1056A00018FC101CF14908F0C7F810A8FFF752FCCD
:1056B00010A8FEF719FEEE49051CFFF7A7FCED4EFA
:1056C000041C321CEC49FFF7D1FC321C201CEB49B6
:1056D000FFF7CCFC201CEA49FFF7DFFCE949061C78
:1056E000FFF746FC301CE849FFF742FC301CE74955
:1056F000FFF73EFC0323201CE54906AA0693FFF7AB
:10570000FCFC3A1C5E32201CE249FFF713FD201C12
:10571000E149E24AFFF7AAFC201CE149E14AFFF710
:10572000A5FC201CE04907AAFFF71CFD201CDF494F
:1057300005AAFFF7E2FC201CDD490AAAFFF712FDCB
:10574000201CDC490DAAFFF70DFD039A201CDA4945
:10575000FFF708FD201CD949FFF758FC3A1C7C32A2
:10576000D749FFF73AFC281C0199FFF773FFD54989
:10577000019808F061F810A8FFF7ECFB10A8FEF7FD
:10578000B3FDBB49061CFFF741FCCF4D041C2A1C8E
:10579000B949FFF76BFC2A1C201CB849FFF766FCCF
:1057A000201CB749FFF779FCC849051CFFF7E0FB4F
:1057B000281CC749FFF7DCFB281CC649FFF7D8FBAC
:1057C00003220692201CB24906AAFFF796FC3A1C57
:1057D0006032201CAF49FFF7ADFC201CAE49AF4A38
:1057E000FFF744FC201CAE49BB4AFFF73FFC201CDE
:1057F000AD4907AAFFF7B6FC201CAC4905AAFFF784
:105800007CFC201CAA490AAAFFF7ACFC201CA94971
:105810000DAAFFF7A7FC039A201CA749FFF7A2FCDB
:10582000201CA649FFF7F2FB3A1C8032A449FFF77F
:10583000D4FB301C0199FFF70DFFA249019807F036
:10584000FBFF10A8FFF786FB10A8FEF74DFD884967
:10585000061CFFF7DBFBA14D041C2A1C8649FFF741
:1058600005FC2A1C201C8549FFF700FC201C8449EC
:10587000FFF713FC9A49051CFFF77AFB281C99498E
:10588000FFF776FB281C9849FFF772FB0323201CC7
:105890007F4906AA0693FFF730FC3A1C6232201CAF
:1058A0007C49FFF747FC201C7B497C4AFFF7DEFB65
:1058B000201C7B498D4AFFF7D9FB201C7A4907AA97
:1058C000FFF750FC201C794905AAFFF716FC201CA5
:1058D00077490AAAFFF746FC201C76490DAAFFF774
:1058E00041FC039A201C7449FFF73CFC201C7349BF
:1058F000FFF78CFB301C0199FFF7ACFE7149019852
:1059000007F09AFF10A8FFF725FB10A8FEF7ECFCA4
:105910005749051CFFF77AFB754E041C321C56498B
:10592000FFF7A4FB321C201C5449FFF79FFB201CEF
:105930005349FFF7B2FB6F49FFF71AFB01220692AA
:10594000201C06AA5249FFF7D8FB3E1C3B1C6C33B7
:105950005C363088029319780AF040FA4D49069077
:1059600006AA201CFFF7C9FB201C4B494B4AFFF736
:105970007DFB201C4A49604AFFF778FB201C4A49FE
:1059800007AAFFF7EFFB201C484905AAFFF7B5FB64
:10599000201C47490AAAFFF7E5FB201C45490DAA30
:1059A000FFF7E0FB039A201C4349FFF7DBFB201CB9
:1059B0004249FFF72BFB3A1C78325049041CFFF791
:1059C000FDFB3A1C4032201C4D49FFF706FB3A1CF8
:1059D0003432201C4B49FFF700FB201C4A494B4A3C
:1059E000FFF744FB201C4A49029AFFF7E7FB321CF1
:1059F000201C4849FFF79EFB281C0199FFF72AFE4F
:105A00003049019807F018FF10A8FFF7A3FA10A873
:105A1000FEF76AFC1649051CFFF7F8FA1649041C44
:105A20003D4AFFF723FB3D4A201C1449FFF71EFBAC
:105A3000201C1349FFF731FB3949FFF799FA01227E
:105A40000692201C06AA1249FFF757FB3B1C6D3338
:105A50003089029319780AF0C1F963E0ACFBFFFFCB
:105A6000235E0100385E0100515E0100575E0100B7
:105A7000595E0100635E01005E5E0100715E01001F
:105A8000765E01002D5C0100305C0100335C01009A
:105A90007F5E01008D5E01009B5E0100AA5E010039
:105AA0004B600100B05E0100B95E0100C35E010001
:105AB000D45E0100E45E0100F55E0100005F0100BC
:105AC000EA60010044590100065F0100365C0100F4
:105AD000395C01003C5C0100105F01001F5F0100A8
:105AE0003F5C0100425C0100455C01002C5F01004D
:105AF000385F0100155C01004E5F01005B5F010033
:105B0000645F01007F5F0100915F0100AB5F0100F6
:105B1000B35F0100C45F0100D65F0100E05F0100D8
:105B20002A5C0100F149069006AA201CFFF7E5FA5D
:105B3000201CEF49EF4AFFF799FA201CEE49EF4A83
:105B4000FFF794FA201CEE4907AAFFF70BFB201C75
:105B5000EC4905AAFFF7D1FA201CEB490AAAFFF786
:105B600001FB201CE9490DAAFFF7FCFA039A201C4F
:105B7000E749FFF7F7FA201CE649FFF747FAE6493D
:105B8000041CE64AFFF772FA0836201CE449029A20
:105B9000FFF714FB321C201CE249FFF7CBFA281C4C
:105BA0000199FFF757FDE049019807F045FE10A85D
:105BB000FFF7D0F910A8FEF797FBDC49051CFFF7AB
:105BC00025FADB49041CDB4AFFF750FADA4A201CAD
:105BD000DA49FFF74BFA201CD949FFF75EFAD94999
:105BE000FFF7C6F901220692201C06AAD649FFF744
:105BF00084FA3B1C6E337088029319780AF0EEF831
:105C0000BA49069006AA201CFFF777FA201CB8496B
:105C1000B84AFFF72BFA201CB749CC4AFFF726FAFF
:105C2000201CB74907AAFFF79DFA201CB54905AA11
:105C3000FFF763FA201CB4490AAAFFF793FA201C65
:105C4000B2490DAAFFF78EFA039A201CB049FFF75C
:105C500089FA201CAF49FFF7D9F9AF49041CAF4AB4
:105C6000FFF704FA0236201CAD49029AFFF7A6FAA4
:105C7000321C201CAB49FFF75DFA281C0199FFF785
:105C8000E9FCA949019807F0D7FD10A8FFF762F9D0
:105C900010A8FEF729FBA549051CFFF7B7F9AC4E84
:105CA000041C321CA249FFF7E1F9321C201CA34955
:105CB000FFF7DCF9201CA249FFF7EFF9A549FFF730
:105CC00057F901220692201C06AA9F49FFF715FAF0
:105CD0003B1C68333E1C02936F36188831780AF0FB
:105CE0007DF88249069006AA201CFFF706FA201CC0
:105CF0007F49804AFFF7BAF9201C7F49964AFFF78F
:105D0000B5F9201C7E4907AAFFF72CFA201C7D4913
:105D100005AAFFF7F2F9201C7B490AAAFFF722FA2D
:105D2000201C7A490DAAFFF71DFA039A201C784916
:105D3000FFF718FA201C7749FFF768F98749041C18
:105D4000874AFFF793F9201C8649874AFFF78EF9A7
:105D5000201C8649864AFFF789F9864A201C06924C
:105D6000854906AAFFF7C9F9824B201C834906AA78
:105D70000693FFF7C2F9201C8149824AFFF776F9A2
:105D8000201C7F49804AFFF771F90A23201C7F49B4
:105D900006AA0693FFF7B1F9321C201C6049FFF7F1
:105DA0000DFA029A201C5F49FFF7C4F9281C0199DB
:105DB000FFF750FC5C49019807F03EFD10A8FFF783
:105DC000C9F810A8FEF790FA5849061CFFF71EF90B
:105DD0006F4D041C2A1C5649FFF748F92A1C201C49
:105DE0005649FFF743F9201C5549FFF756F9694911
:105DF000051CFFF7BDF86849281CFFF7B9F867498B
:105E0000281CFFF7B5F803220692201C06AA4E496B
:105E1000FFF773F9398CB88C09F092FF80B20690C5
:105E20003249201C06AAFFF768F9201C3049314A84
:105E3000FFF71CF9201C3049594AFFF717F9201CBD
:105E40002F4907AAFFF78EF9201C2E4905AAFFF754
:105E500054F9201C2C490AAAFFF784F9201C2B496D
:105E60000DAAFFF77FF9039A201C2949FFF77AF959
:105E7000201C2849FFF7CAF83A1C1E324949041C65
:105E8000FFF79CF93A1C2032201C2549FFF752F9F4
:105E90003A1C2232201C4449FFF790F93A1C243264
:105EA000201C2049FFF746F93A1C2632201C3F49A6
:105EB000FFF740F93A1C2832201C3D49FFF73AF918
:105EC0000199301CFFF7C6FB01983A4907F0B4FC72
:105ED00001240DA808F086FB0AA808F083FB07A898
:105EE00008F080FB201C344B9D4467E08D5E010070
:105EF0009B5E0100AA5E01004B600100E95F0100AA
:105F0000B95E0100C35E0100D45E0100E45E0100E1
:105F1000F55E0100005F0100F15F0100FC5F010020
:105F2000B35F0100C45F010044590100595E0100E4
:105F30005E5E01000F6001001C600100715E0100E7
:105F4000765E0100245C01007F5E01002860010094
:105F500038600100275C01004360010051600100CE
:105F60005B600100666001007460010083600100F5
:105F70008960010010270000645F01009460010047
:105F8000915F0100AB5F0100AA600100835F010027
:105F9000B36001001E5C0100215C0100B4600100DF
:105FA000B7600100C1600100D1600100DA6001004A
:105FB000E6600100F060010054040000F0BDC0463E
:105FC000021C902388329B00F0B5C25091231432FA
:105FD0009B00C250922314329B00C2509323143270
:105FE0009B00C250942314329B00C250952314325C
:105FF0009B00C250421C9623FF329B00C2508A2352
:106000005B00C21897239B00C25094235B00C21808
:1060100098239B00C2509E235B00C21899239B00CB
:10602000C250A8235B00C2189A239B00C250B2231F
:106030005B00C2189B239B00C250BC235B00C218AC
:106040009C239B00C250C6235B00C2189D239B006B
:10605000C250D0235B00C2189E239B00C250DA239B
:106060005B00C2189F239B00C250E4235B00C21850
:10607000A0239B00C250EE235B00C218A1239B000B
:10608000C250F8235B00C218A2239B00C250812398
:106090009B00C218A3239B00C25086239B00C218FA
:1060A000A4239B00C2508B239B00C218A5239B00F6
:1060B000C250031C0833D967C04B05224367C04B4D
:1060C00089B08363031C71331A700D230377031C9B
:1060D00070332D221A7011229A701222DA702C3B22
:1060E00006221A7034330C221A708B23DB05071C2E
:1060F000C363002903D1B34B0364B34B04E001290C
:1061000003D1B04B0364B14B7B63B14CB149201C4C
:1061100007F0C0FBB049201C07F08EFB0A22397F34
:10612000201C07F028FCAD49201C07F085FB3B1C18
:106130007033059319780A22201C3E1C07F01BFCC3
:106140007136A749201C07F077FB31780A22201C02
:1061500007F011FCA349201C07F06EFB3B1C7233B7
:10616000069319780A22201C07F005FC9E49201C82
:1061700007F062FB3B1C7333079319780A22201C3B
:1061800007F0F9FB9949201C07F056FB786F0CF0DB
:10619000CBFB0225021C0B1C0095201C07F0B8FC51
:1061A0009349201C07F048FBF86B0CF0BDFB0095F1
:1061B000021C0B1C201C07F0ABFC8E49201C07F0B6
:1061C0003BFB386C0CF0B0FB0095021C0B1C201C38
:1061D00007F09EFC8849201C07F02EFB786B0CF022
:1061E000A3FB0095021C0B1C201C07F091FC387FC0
:1061F000002107F051F9059B0021187807F04CF9B0
:106200007E49201C07F046FB3078012107F044F955
:106210003078002107F09AF97949201C07F03AFB01
:10622000069B0021187807F037F9079B00211878A2
:1062300007F032F93B1C7833187807F053F87149AE
:10624000201C07F027FB704E301C00F047F9301C73
:1062500000F0FEF8301C00F02BFA0023301C7360B5
:1062600000F06AF9201C694907F014FB3D1C2C352D
:10627000281C311C664A572301F03EF9059000287E
:106280000FD16449201C07F005FB301C00F0E0F83A
:10629000301C00F00DFA059B301C736000F04CF9C7
:1062A000E4E7281C01F0BAF9281C01F095F9B88C34
:1062B000FB1CB97FDB7F3A8C0090F88CD2B2019046
:1062C000388D0290281C01F0F9F9281C01F068F8BB
:1062D000201C514907F0DEFA504D022368220121AB
:1062E000281C00F0B4FE281C00F076FD4C49061C6A
:1062F000201C07F0A1FA1022311C201C07F03BFBE8
:106300008123DB05FB67474B3E1DF367281C0421F7
:1063100000F0BAFFF06F0AF055FC011C281C00F0D9
:1063200097FF281C4B21202200F08DFE0A2006F04A
:106330005FFD4C218022281C00F085FE0A2006F01B
:1063400057FD381CFEF7F6F8281C4C21032200F0FC
:106350007AFE0A2006F04CFD281C4D21422200F056
:1063600072FE0A2006F044FD4C22281C4E2100F04B
:106370006AFE0A2006F03CFD201C2B4907F08AFA31
:10638000381C402100F094FA381C032100F034FB43
:10639000381C0B2100F030FB381C0D2100F02CFBC9
:1063A000381C0E2100F028FB0621381C00F024FBCD
:1063B000381C00F0DDFB09B0F0BDC046333353405C
:1063C0003333D33F8096984A0000A041000020411B
:1063D000641E0020F26001000B61010018610100E1
:1063E0002B6101003F6101004A610100556101001C
:1063F0005D61010067610100736101008761010057
:10640000A4610100B7610100DC120020C861010035
:10641000A0860100E2610100166201001015002053
:10642000326201000000FA433E620100F8B5051C2B
:106430000F1C161C0024B44208D02B68395D1B6861
:10644000281C9847002801D00134F4E7201CF8BD2F
:106450007047031CFC33196ADA69914203D01B6A46
:10646000C018007E01E0012040427047031CFC334D
:10647000D8691B6AC01A01D50130FF30704700008F
:10648000F7B50193FA239B008360134B8026002508
:1064900076000833041C0F1C4560291C0092036021
:1064A000321C18300CF000FC231C9022FC335200EC
:1064B000DD61A0181D62321C291C0CF0F5FB87223F
:1064C0009200A3185D60019A9D60009B2761A575ED
:1064D000201C23756275FEBD6862010070B50D4910
:1064E000041C006907F0D6FD206907F04CFC182653
:1064F000207D331C4343084D0821EB18595607F003
:106500006DF8607D08214643AD19695607F066F8BD
:1065100070BDC046A0860100E065010038B5041CCE
:106520000D1C006907F043FC291C206907F0B2FD2F
:10653000206907F028FC38BD08B5006907F037FC72
:1065400008BD8A2387229B009200C1548318002231
:106550005A609A60012383757047031CFC335A68A4
:1065600010B501329C68D2B2A24202D05C680155DB
:106570005A6010BDF7B501930023041C151C181CAC
:106580009A4231D0221CFC32D3612069136201226D
:1065900007F040FC002825D0206907F0AAFC271C42
:1065A0001837011C381CFFF7D8FF01262069AE42BE
:1065B0000ED007F00FFC0221206907F015FC2069BE
:1065C00007F097FC011C381CFFF7C7FF0136EDE709
:1065D00007F0F7FB019B002B05D02069032107F092
:1065E00003FC00E0051CE8B2FEBD08B50123FFF77F
:1065F000C1FF08BD10B5827D00239A420DD08724CB
:10660000A4000219546892680134E4B2944204D0A0
:106610002130FF30FFF7A1FF0123181C10BD031C20
:10662000FC3399685A68914206D09A68805C9A68EF
:106630000132D2B29A6001E001204042704770B549
:1066400000228A2382759B00041C0E1CC15C006919
:1066500007F0E0FB002805D12069032107F0C4FB07
:10666000022523E090235B00E01887239B00E218BB
:1066700051689368CB1A01D50133FF33002B0ED03C
:106680002569FFF7CCFFC1B2281C07F0F2FB0028F8
:10669000E8D12069032107F0A7FB032506E01D1CB4
:1066A000002E03D02069032107F09EFB281C70BD3B
:1066B00008B50121FFF7C3FF08BD08B51830FFF783
:1066C000AEFF08BD38B5041C006907F0F0FB0028D8
:1066D00000D184E0206907F0F8FB00280ED1206982
:1066E00007F0FDFB00281FD0206907F0F3FB00280E
:1066F0001AD0206907F0F8FB002815D1206907F0AF
:1067000069FB2069032107F06FFB8C239B00E55890
:10671000002D04D02368201C1B699847A847FC342F
:106720000023E36123625AE0206907F0D8FB031CD1
:106730002069002B19D007F04DFB2069032107F0D9
:1067400053FB206907F0D0FB002848D08722920035
:10675000A31800225A609A600123A3758B239B0023
:10676000E35893423BD0984739E007F0A9FB002853
:1067700035D0206907F0B8FB002816D087239B008E
:10678000E21851689368CB1A01D50133FF33FF211A
:10679000002B05D090225200A018FFF740FFC1B295
:1067A000206907F077FBA07519E0231CFC33DA6938
:1067B0001B6A0132D2B220699A4202D107F001FB72
:1067C00009E007F096FB011C201C1830FFF7C5FEFE
:1067D000206907F0FFFA2069032107F005FB38BDA7
:1067E00008B50248FFF76EFF08BDC046DC12002066
:1067F00008B50348034914221523FFF741FE08BDDD
:10680000DC120020AC1D0020002303704370837055
:1068100043750375FF239B05C3606423038370479F
:1068200010B5041C007D002817D006F0A9FA2369D2
:10683000C01A638998420FD9237D012B01D123709F
:1068400002E0022B02D10123637003E0032B01D18C
:106850000123A37000232375207D10BD00787047AD
:106860008078704738B5041CFFF7DAFF00239842A0
:1068700018D10D4DA17D281CFFF763FEFE21281CB9
:10688000FFF7B8FE281CFFF713FF0849E06809F07E
:10689000FFFE09F07DFB06F0ABFA1723A380072368
:1068A00023810123181C38BDDC1200200000704138
:1068B00038B500258175057045708570041CFFF79B
:1068C000AFFFA8420BD10749E06809F0E1FE09F0EB
:1068D0005FFB06F08DFA201CFFF7C4FF0125281C82
:1068E00038BDC0460000A042F8B5051C0F1CFFF7DC
:1068F00097FF002801D018482CE0184E301CFFF7F5
:10690000B5FD341C002803DD301CFFF7D6FEF4E78C
:10691000301CA97DFFF715FE391C301CFFF76AFEFD
:10692000301CFFF7C5FEA97D301C0122FFF75DFE7C
:1069300006F026FA061C06F023FA2B8B801B9842E1
:10694000D9D2201CFFF792FD0128F4D1201CFFF7BB
:10695000B4FEC0B200B2F8BDFFFF0000DC120020A0
:10696000F8B5041C0D1C171C1E1CFFF759FF00284E
:1069700001D000203CE0E62D07D1201CE721FFF7E5
:10698000B3FF3A23002811DAF3E7502D02D1201C7F
:10699000102104E00020512D05D1201C1121FFF70A
:1069A000A3FF0304E5D4502D02D108239E4303E046
:1069B000512D01D10F231E40B0430E4E0743A17D40
:1069C000301CFFF7BEFDFFB2291C301CFFF712FE82
:1069D000391C301CFFF70EFE301CFFF769FE01204A
:1069E000502D05D140231F4001D1677500E060752F
:1069F000F8BDC046DC12002008B51723002902D0DC
:106A0000012904D1072383800A1C81234BE002293A
:106A100003D10B2383808022F7E7032903D10A23C4
:106A200083808122F1E70A2903D104230381102204
:106A30003CE00B2904D1072303810022102336E018
:106A40000C2918D00D2918D0102919D0112919D0C6
:106A50000E291AD00F291AD006291BD007291BD0BE
:106A600004291CD005291CD008291ED0002220236F
:106A7000092920D11BE0042218E00022042316E09B
:106A8000012213E00022012311E002220EE0002285
:106A900002230CE0402209E00022402307E002220A
:106AA00000E000220223E62102E02022131C5021F4
:106AB000FFF756FF021C101C08BD000070B5041C37
:106AC0000E1CFFF7ADFE002398424CD11023321C60
:106AD0009A43E52A0ED1637D002B07D0201C0721A5
:106AE000FFF78AFF0028F9D001236375012323757E
:106AF000A08818E0E32A0ED1637D002B07D0201C6C
:106B00000721FFF779FF0028F9D0012363750223DD
:106B10002375E08807E0EE2E15D1637D002B0BD1A5
:106B20000323208923750AF0C9F8E16809F0B0FD54
:106B300009F02EFA608106E0201C0621FFF75CFFB9
:106B40000028F9D0ECE7094DA17D281CFFF7F9FCDE
:106B5000311C281CFFF74EFD281CFFF7A9FD06F08D
:106B60000FF901232061181C70BDC046DC12002003
:106B700008B5F521FFF7A2FF08BD08B5EE21FFF724
:106B80009DFF08BDF8B5051CFFF74AFE002801D09F
:106B90001E4839E01E4E301CFFF768FC341C0028EC
:106BA00003DD301CFFF789FDF4E7A97D301C0322CB
:106BB000FFF71BFD06F0E4F8061C06F0E1F82B8B4E
:106BC000801B9842E4D2201CFFF750FC0328F4D12C
:106BD000201CFFF772FD071C201CFFF76EFD061C32
:106BE000201CFFF76AFD38020643B0B20AF066F8CF
:106BF000084909F04DFDDE21890509F049FD0649E6
:106C000009F070FE00232B70F8BDC0460000C07F65
:106C1000DC1200200000FA420000C040000000002A
:106C200070B5041CFFF7FCFD002801D026483FE0AA
:106C3000264E301CFFF71AFC351C002803DD301CE3
:106C4000FFF73BFDF4E7A17D301C0222FFF7CDFCEE
:106C500006F096F8061C06F093F8238B801B9842EA
:106C6000E4D2281CFFF702FC0228F4D1281CFFF70D
:106C700024FD061C281CFFF720FD3602304380B29D
:106C80000AF01CF80BF050FE0C4B0B4A0AF0ECFF1C
:106C90000BF09CFEDE21890509F0FAFC0BF044FEA6
:106CA000074A084B0BF070FA0BF090FE002363705C
:106CB00070BDC046C046C046D7A3703D0AF76540C8
:106CC000CDCCCCCCCC6C47400000C07FDC12002087
:106CD00038B5041CFFF7A4FD00280FD1084DA17D95
:106CE000281CFFF72EFCE021281CFFF783FC281C42
:106CF000FFF7DEFC201CFFF793FF00E0014838BDE2
:106D0000DC1200200000C07F70B5041CFFF788FD76
:106D1000002801D017482BE0174E301CFFF7A6FBC8
:106D2000351C002803DD301CFFF7C7FCF4E706F034
:106D300027F8A17D061C0222281CFFF756FC06F04E
:106D40001FF8238B801B9842E4D2281CFFF78EFB90
:106D50000228F4D1281CFFF7B0FC061C281CFFF702
:106D6000ACFC360200233043A37080B209F0A6FFCA
:106D700070BDC0460000C07FDC12002037B503683C
:106D800001AC217001221D68211C131CA84720782A
:106D90003EBD13B501AB5A70026819701468191C16
:106DA00002220023A04713BDF8B51E1C051C0C1CB5
:106DB000171CFFF7E3FF069A01239340013BB34002
:106DC000B740021CFEB29A43D2B23340281C1A4389
:106DD000211CFFF7DEFFF8BD08B50021FFF7CEFF4D
:106DE00008BD07B503230A1C009343210023FFF7C6
:106DF000DBFF07BD07B504230A1C009341210023D4
:106E0000FFF7D2FF07BDF7B5B6227E21041CFFF7BE
:106E1000C0FF012005F0ECFF7F21201CFFF7AEFF33
:106E2000012005F0E5FF201C7E211122FFF7B1FFB4
:106E3000012005F0DDFF201C0321FFF79FFF8506E1
:106E4000AD0F012DF4D1201C7E211522FFF7A1FFEB
:106E5000281C05F0CDFF201C0321FFF78FFF032620
:106E600087103740012F01D00120F2E7201C311C90
:106E7000FFF7B7FF201C311CFFF7BCFF7E21192252
:106E8000201CFFF786FF3C2005F0B2FF201C692183
:106E90004022FFF77EFF201C7E213722FFF779FF7B
:106EA000201C7E219A22FFF774FF201C7E21C02225
:106EB000FFF76FFF0225201C7F219022FFF769FF5B
:106EC0000423201C05212A1C0095FFF76DFF201CC0
:106ED0007F218022FFF75DFF201C4B212022FFF73E
:106EE00058FF201C4C218322FFF753FF0423201C52
:106EF0006B212A1C0095FFF757FF201C4F213A1CDD
:106F0000FFF747FF4E214B22201CFFF742FF301CAA
:106F100005F06EFF201C4F210422FFF73AFF201CD2
:106F20004E215122FFF735FF201C4F210E22FFF783
:106F300030FF201C4E215222FFF72BFF201C4F2137
:106F40002A1CFFF726FF201C4E214C22FFF721FFB1
:106F5000201C4D214222FFF71CFF201C4421062249
:106F6000FFF717FF0097201C4C2100220723FFF793
:106F70001BFF201C0321FFF701FF032318400128FA
:106F800003D0012005F034FFF3E7201C5521FF2238
:106F9000FFF7FFFE201C5621F022FFF7FAFE201C0F
:106FA00057210022FFF7F5FEF7BDF0B587B001AC21
:106FB0001D1C042323700368161C1A680F1C9446BA
:106FC000211C01221423E047637822781B0213431B
:106FD0000F9A1380E378A2781B021343109A138050
:106FE000637922791B021343119A1380E379A27902
:106FF0001B021343129A1380637A227A1B021343F3
:107000000C9A1380E37AA27A1B0213430D9A138021
:10701000637B227B1B0213430E9A1380E37BA27BCC
:107020001B0213433B80637C227C1B02134333808F
:10703000E37CA27C1B0213432B8007B0F0BD08B594
:10704000FFF79CFE08BD08B5FFF7A3FE08BD08B515
:107050000175012903D0022908D1026100E0C26054
:10706000002B00DB836000F0D8F800E0002008BDB2
:1070700038B5094C051C201CFFF730FA201C297B71
:10708000FFF75FFA201CFFF713FB002803D003482B
:10709000034906F0FFFB38BDDC120020641E00200F
:1070A000CC62010010B5041C074802F017FA2069F1
:1070B000002803DB012106F0EFF903E0034804494F
:1070C00006F0E8FB10BDC04674150020641E0020C9
:1070D000F462010008B51423C356012B04D0022B1F
:1070E00004D1FFF7DFFF01E0FFF7C2FF08BD00009A
:1070F000F7B5061C00690C1C171C0193002802DB65
:10710000002106F023FAE719251CBD4205D0297895
:107110000B4802F041FA0135F7E7019BE518AC4254
:1071200006D00748002102F037FA20700134F6E754
:107130003069002802DB012106F008FA0020FEBDBC
:1071400074150020044A054B08321A60012252428D
:107150009A60DA601A6170475863010010150020C8
:10716000F7B51B4C0D1C161C0090017BAE19201CA2
:107170001F1CFFF7E6F901962E1C019B9E4205D0CD
:107180003178201CFFF736FA0136F6E7201CFFF7AE
:107190008FFA002803D00F480F4906F07BFB002F21
:1071A00013D0009B201C197B3A1CFFF71EFAEE1926
:1071B000201CFFF75BF9002807D0B54205D0201C42
:1071C000FFF77BFA28700135F2E70020FEBDC046CC
:1071D000DC120020641E00203763010038B514243F
:1071E0000457012C02D0022C03D00CE0FFF7B8FFAB
:1071F0000AE0002B04D00D78802464422C430C70EC
:10720000FFF776FF00E0002038BD70470020704790
:1072100010B50468A468A04710BD37B50368041C06
:107220005B689847694607317F230B70236801220A
:107230001D68201C131CA847201CFFF7E4FD201C20
:10724000FFF7CAFDD13843425841C0B23EBD0000ED
:107250000B4A0B1C10B5002193420EDC094A012198
:1072600093420ADCF422FF320221934205DCDC0F58
:107270000021F9229A4261410331FFF7B2FD10BDAE
:10728000CF070000E703000008B50323022906DD4D
:107290000523042903DD0C23082900DC0823191C1D
:1072A000FFF7A8FD08BD0000024A034B08321A6030
:1072B0007047C04670630100281500207047000029
:1072C000074B1A1C3032313310781B78C31ADBB2EB
:1072D000D8B242B2002A01DA181DC0B2C0B270475B
:1072E00030150020034B1A1C313212789200D0580E
:1072F0007047C04630150020034B1A1C31321278FB
:1073000004329200D058704730150020034B1A1CED
:107310003132127808329200D05870473015002070
:1073200008B5FFF7CDFF002806D0044B0321313309
:107330001A7801320A401A7008BDC0463015002084
:1073400070B5041C0068161C0D1CFFF7FAF82068C5
:10735000311C03681B68984700212068FFF76FF90C
:10736000291C01222068FFF740F9206803681B6987
:107370009847031C0020834204D0206803685B699F
:107380009847C0B270BD08B504220179FFF7D8FF55
:1073900008BD08B506220179FFF7D2FF08BD00003D
:1073A000F0B585B0041CFFF7F4FF051C201CFFF7A7
:1073B000EAFF854200D188E0461B00D5203663797C
:1073C000032273435A43206857210192FFF7B9F80B
:1073D0002068072103681B6898472068FFF768F951
:1073E0000199002972DD019F80256D00AF4206DD05
:1073F000637903215943281C08F046FD6F1A019850
:107400005721C01B01903A1C2068FFF7EEF8002FAF
:10741000E6DD304903220B7803AD013313400B70D6
:1074200020680023EB7003685B699847A8702068A8
:1074300003685B6998476870206803685B699847D0
:107440002870039B23489A03037823499B00920BDF
:107450005A506379012B17D9206803685B699847F4
:10746000A870206803685B699847687020680368A3
:107470005B6998472870039B16489A03037816495E
:107480000433920B9B005A506379022B18D9206861
:1074900003685B699847A870206803685B69984730
:1074A0006870206803685B6998470B4B28701A1C4A
:1074B000303212780398083281039200890BD15040
:1074C00063799A009B1AFF18A1E70026B0B205B0B5
:1074D000F0BDC046601500203015002008B5FF2221
:1074E0000179FFF72DFF08BD10B5FE220179041CBC
:1074F000FFF726FFA07110BD70B5041C161C081CF8
:1075000021601D1CFEF7EAFF2068311CFFF706F81A
:107510002571201CFFF7E2FF0023152803D1201C52
:10752000FFF7E2FF0123181C70BD70B5041C006852
:10753000161C1D1CFFF705F82068311C03681B682A
:1075400098472068291C03681B6898472068FFF744
:10755000AFF870BD08B50C220B1C0179FFF7E5FFF1
:1075600008BD08B50D220B1C0179FFF7DEFF08BD31
:1075700008B50E220B1C0179FFF7D7FF08BD08B52F
:1075800010220B1C0179FFF7D0FF08BD10B50422B3
:10759000041C01790023FFF7C8FF2179201C052274
:1075A0000023FFF7C2FF2179201C06220023FFF7EA
:1075B000BCFF10BDF8B50D1C171C01792A1C041C5A
:1075C0001E1CFFF7BDFE331C07403B432A1C2179DC
:1075D000201CFFF7AAFFF8BD38B50921BF224023C0
:1075E000041CFFF7E7FF05F0CBFB051C05F0C8FB0B
:1075F000401B63280AD82179201C0922FFF7A0FE2E
:10760000430603D5012005F0F3FBEFE738BD08B5CD
:1076100009217F228023FFF7CDFF08BD08B509218E
:107620007F220023FFF7C6FF08BD08B5F8220B1C18
:107630000921FFF7BFFF08BD08B59F220B1C0A21D7
:10764000FFF7B8FF08BD08B5E3220B1C0A21FFF7BE
:10765000B1FF08BD08B5FC220B1C0A21FFF7AAFFE9
:1076600008BD08B51F220B1C0821FFF7A3FF08BDAA
:1076700008B50821EF221023FFF79CFF08BD10B5C5
:10768000041C481E131C032816D808F04FFB0205E3
:107690000A0E201C112106E01301DBB2201C11216F
:1076A00007E0201C1221F82204E01301DBB2201CA9
:1076B00012218F22FFF77EFF10BD0000F7B5089F53
:1076C000151C041C01911E1CFFF786FF012D02D121
:1076D000201C002117E0022D02D1201C202112E0E5
:1076E000042D02D1201C40210DE0082D02D1201CC8
:1076F000602108E0102D02D1201C802103E0202D04
:10770000F0D1201CA021FFF7ACFF201CFFF7B0FF39
:10771000201C0721032E03D00321022E00D00221BA
:10772000FFF783FF4A4B0A9A66719A4202DC201CDB
:10773000002114E0474B0A9A9A4202DC201C2021C7
:107740000DE0454B0A9A9A4202DC201C402106E0DB
:107750000A9A8023DB019A42E9D1201C6021FFF7BD
:107760006BFF632F02DC201C002129E0C72F02DC05
:10777000201C042124E09023FF339F4202DC201CC4
:1077800008211DE0354B9F4202DC201C0C2117E034
:10779000334B9F4202DC201C102111E0314B9F42F1
:1077A00002DC201C14210BE02F4B9F4202DC201C2A
:1077B000182105E0C8231B019F42D4D1201C1C21A5
:1077C000FFF741FF099B752B02DC201C002114E010
:1077D000099AD62A02DC201C01210EE0099ACD2349
:1077E0005B009A4202DC201C022106E09C23099ADD
:1077F000FF339A42E9D1201C0321FFF72BFF201C05
:107800000199FFF7A7FE201C0199FFF7AAFE201C93
:107810000199FFF7ADFE201C0199FFF7B0FE012191
:10782000201C0A1CFFF72BFF012E0CD9201C112154
:107830008F222023FFF7BEFE022E04D00321201C3E
:107840000A1CFFF71CFF201CFFF7A0FEF7BDC04677
:10785000FF0F0000FF1F0000FF3F00001F0300009C
:10786000E70300003F0600007F0C000010B5041C79
:10787000243001F004F9031C0020834204D08C233F
:107880009B00E01801F0FBF810BD08B583780421D7
:10789000021C0B43837011698068103201F0AEF94D
:1078A00008BD0000F7B505782023041C1D4001D059
:1078B00000262DE0174B42699A42F9D8FFF7E5FF01
:1078C000061EF5D02169A06801F025F90190A06895
:1078D00001992430052201F0F9F8071EE8D0802232
:1078E000291C92000BF0E0F90125A26813799D4252
:1078F0000AD2019B1068E9183A1C01F0FDFC00282F
:10790000D6D00135EDB2F0E762695B02D31863614E
:10791000301CFEBDFFFD1F0010B5041C80680A1C52
:107920002430A16901F0D2F8002804D0A2880F23E6
:1079300013405B01C01810BD002270B5131C082550
:10794000845C202C14D0D4B2082C04D12E255C1CCD
:10795000CD54E3B21025845C261C413E192E04D878
:10796000067B2E4201D02034E4B25E1CCC54F3B22C
:1079700001320B2AE4D10022181CCA5470BD70B524
:1079800003780025041C0E1CAB420FD1291C2422B5
:107990000BF08AF9A660F379102B03D0202B05D1C8
:1079A000402300E0202301252370A570281C70BD12
:1079B000F0B5037885B0041C03910192002B13D01D
:1079C0008278D10710D516E045790D400295002F39
:1079D00043D1002D41D1002B31D0221C216910321E
:1079E00001F09FF8002831DA637802221343012066
:1079F0006370404295E01A0703D5E2696569531B3D
:107A000007E0990609D5A268656913895B015B1BCC
:107A10009BB2019D9D4200D90193019D00950025D7
:107A20000295009D002D29D063692278DF05FF0DA6
:107A3000A068590A9506C7D5056A4D1913E0510685
:107A400001D5036A00E0236A236106E0002804D11F
:107A5000227870231A4211D1C6E7A068216901F08B
:107A60005AF8029A8518A068002F3FD12E4B009932
:107A700099423BD9C36A9D4204D137E0019D0099E8
:107A8000681A4EE0294A009991421CD9009A570A77
:107A90002278910606D402790299521AD2B29742FC
:107AA00000D9171C7E02AB4209D9A368291C1868AB
:107AB000039A3B1C01F0DAFB00280DD194E7FB1878
:107AC0009D4228D3F1E70068291C039A01F080FB4E
:107AD000002889D08026B600039D6169AD19039501
